{
  "_format": "hh-sol-artifact-1",
  "contractName": "NFTMarketplace",
  "sourceName": "contracts/NFTMarketplace.sol",
  "abi": [
    {
      "inputs": [
        {
          "internalType": "string",
          "name": "name",
          "type": "string"
        },
        {
          "internalType": "string",
          "name": "symbol",
          "type": "string"
        }
      ],
      "stateMutability": "nonpayable",
      "type": "constructor"
    },
    {
      "anonymous": false,
      "inputs": [
        {
          "indexed": true,
          "internalType": "address",
          "name": "owner",
          "type": "address"
        },
        {
          "indexed": true,
          "internalType": "address",
          "name": "approved",
          "type": "address"
        },
        {
          "indexed": true,
          "internalType": "uint256",
          "name": "tokenId",
          "type": "uint256"
        }
      ],
      "name": "Approval",
      "type": "event"
    },
    {
      "anonymous": false,
      "inputs": [
        {
          "indexed": true,
          "internalType": "address",
          "name": "owner",
          "type": "address"
        },
        {
          "indexed": true,
          "internalType": "address",
          "name": "operator",
          "type": "address"
        },
        {
          "indexed": false,
          "internalType": "bool",
          "name": "approved",
          "type": "bool"
        }
      ],
      "name": "ApprovalForAll",
      "type": "event"
    },
    {
      "anonymous": false,
      "inputs": [
        {
          "indexed": true,
          "internalType": "uint256",
          "name": "tokenId",
          "type": "uint256"
        },
        {
          "indexed": false,
          "internalType": "address",
          "name": "seller",
          "type": "address"
        },
        {
          "indexed": false,
          "internalType": "address",
          "name": "owner",
          "type": "address"
        },
        {
          "indexed": false,
          "internalType": "address",
          "name": "creator",
          "type": "address"
        },
        {
          "indexed": false,
          "internalType": "uint256",
          "name": "price",
          "type": "uint256"
        },
        {
          "indexed": false,
          "internalType": "bool",
          "name": "sold",
          "type": "bool"
        }
      ],
      "name": "MarketItemCreation",
      "type": "event"
    },
    {
      "anonymous": false,
      "inputs": [
        {
          "indexed": true,
          "internalType": "address",
          "name": "from",
          "type": "address"
        },
        {
          "indexed": true,
          "internalType": "address",
          "name": "to",
          "type": "address"
        },
        {
          "indexed": true,
          "internalType": "uint256",
          "name": "tokenId",
          "type": "uint256"
        }
      ],
      "name": "Transfer",
      "type": "event"
    },
    {
      "inputs": [
        {
          "internalType": "address",
          "name": "to",
          "type": "address"
        },
        {
          "internalType": "uint256",
          "name": "tokenId",
          "type": "uint256"
        }
      ],
      "name": "approve",
      "outputs": [],
      "stateMutability": "nonpayable",
      "type": "function"
    },
    {
      "inputs": [
        {
          "internalType": "address",
          "name": "owner",
          "type": "address"
        }
      ],
      "name": "balanceOf",
      "outputs": [
        {
          "internalType": "uint256",
          "name": "",
          "type": "uint256"
        }
      ],
      "stateMutability": "view",
      "type": "function"
    },
    {
      "inputs": [
        {
          "internalType": "uint256",
          "name": "price",
          "type": "uint256"
        }
      ],
      "name": "calculateCommission",
      "outputs": [
        {
          "internalType": "uint256",
          "name": "",
          "type": "uint256"
        }
      ],
      "stateMutability": "view",
      "type": "function"
    },
    {
      "inputs": [
        {
          "internalType": "uint256",
          "name": "price",
          "type": "uint256"
        }
      ],
      "name": "calculateRoyalty",
      "outputs": [
        {
          "internalType": "uint256",
          "name": "",
          "type": "uint256"
        }
      ],
      "stateMutability": "view",
      "type": "function"
    },
    {
      "inputs": [
        {
          "internalType": "uint256",
          "name": "tokenId",
          "type": "uint256"
        }
      ],
      "name": "getApproved",
      "outputs": [
        {
          "internalType": "address",
          "name": "",
          "type": "address"
        }
      ],
      "stateMutability": "view",
      "type": "function"
    },
    {
      "inputs": [],
      "name": "getListingFee",
      "outputs": [
        {
          "internalType": "uint256",
          "name": "",
          "type": "uint256"
        }
      ],
      "stateMutability": "view",
      "type": "function"
    },
    {
      "inputs": [
        {
          "internalType": "address",
          "name": "owner",
          "type": "address"
        },
        {
          "internalType": "address",
          "name": "operator",
          "type": "address"
        }
      ],
      "name": "isApprovedForAll",
      "outputs": [
        {
          "internalType": "bool",
          "name": "",
          "type": "bool"
        }
      ],
      "stateMutability": "view",
      "type": "function"
    },
    {
      "inputs": [],
      "name": "name",
      "outputs": [
        {
          "internalType": "string",
          "name": "",
          "type": "string"
        }
      ],
      "stateMutability": "view",
      "type": "function"
    },
    {
      "inputs": [
        {
          "internalType": "uint256",
          "name": "tokenId",
          "type": "uint256"
        }
      ],
      "name": "ownerOf",
      "outputs": [
        {
          "internalType": "address",
          "name": "",
          "type": "address"
        }
      ],
      "stateMutability": "view",
      "type": "function"
    },
    {
      "inputs": [
        {
          "internalType": "address",
          "name": "from",
          "type": "address"
        },
        {
          "internalType": "address",
          "name": "to",
          "type": "address"
        },
        {
          "internalType": "uint256",
          "name": "tokenId",
          "type": "uint256"
        }
      ],
      "name": "safeTransferFrom",
      "outputs": [],
      "stateMutability": "nonpayable",
      "type": "function"
    },
    {
      "inputs": [
        {
          "internalType": "address",
          "name": "from",
          "type": "address"
        },
        {
          "internalType": "address",
          "name": "to",
          "type": "address"
        },
        {
          "internalType": "uint256",
          "name": "tokenId",
          "type": "uint256"
        },
        {
          "internalType": "bytes",
          "name": "_data",
          "type": "bytes"
        }
      ],
      "name": "safeTransferFrom",
      "outputs": [],
      "stateMutability": "nonpayable",
      "type": "function"
    },
    {
      "inputs": [
        {
          "internalType": "address",
          "name": "operator",
          "type": "address"
        },
        {
          "internalType": "bool",
          "name": "approved",
          "type": "bool"
        }
      ],
      "name": "setApprovalForAll",
      "outputs": [],
      "stateMutability": "nonpayable",
      "type": "function"
    },
    {
      "inputs": [
        {
          "internalType": "bytes4",
          "name": "interfaceId",
          "type": "bytes4"
        }
      ],
      "name": "supportsInterface",
      "outputs": [
        {
          "internalType": "bool",
          "name": "",
          "type": "bool"
        }
      ],
      "stateMutability": "view",
      "type": "function"
    },
    {
      "inputs": [],
      "name": "symbol",
      "outputs": [
        {
          "internalType": "string",
          "name": "",
          "type": "string"
        }
      ],
      "stateMutability": "view",
      "type": "function"
    },
    {
      "inputs": [
        {
          "internalType": "uint256",
          "name": "tokenId",
          "type": "uint256"
        }
      ],
      "name": "tokenURI",
      "outputs": [
        {
          "internalType": "string",
          "name": "",
          "type": "string"
        }
      ],
      "stateMutability": "view",
      "type": "function"
    },
    {
      "inputs": [
        {
          "internalType": "address",
          "name": "from",
          "type": "address"
        },
        {
          "internalType": "address",
          "name": "to",
          "type": "address"
        },
        {
          "internalType": "uint256",
          "name": "tokenId",
          "type": "uint256"
        }
      ],
      "name": "transferFrom",
      "outputs": [],
      "stateMutability": "nonpayable",
      "type": "function"
    },
    {
      "inputs": [
        {
          "internalType": "uint256",
          "name": "_commissionBasis",
          "type": "uint256"
        }
      ],
      "name": "updateCommissionBasis",
      "outputs": [],
      "stateMutability": "nonpayable",
      "type": "function"
    },
    {
      "inputs": [
        {
          "internalType": "uint256",
          "name": "_listingFee",
          "type": "uint256"
        }
      ],
      "name": "updateListingFee",
      "outputs": [],
      "stateMutability": "nonpayable",
      "type": "function"
    },
    {
      "inputs": [
        {
          "internalType": "uint256",
          "name": "_royaltyBasis",
          "type": "uint256"
        }
      ],
      "name": "updateRoyaltyBasis",
      "outputs": [],
      "stateMutability": "nonpayable",
      "type": "function"
    }
  ],
  "bytecode": "0x6080604052655af3107a4000600a5560fa600b556103e8600c553480156200002657600080fd5b5060405162002dc538038062002dc583398181016040528101906200004c9190620001ed565b8181816000908051906020019062000066929190620000cb565b5080600190805190602001906200007f929190620000cb565b50505033600960006101000a81548173ffffffffffffffffffffffffffffffffffffffff021916908373ffffffffffffffffffffffffffffffffffffffff1602179055505050620003d0565b828054620000d990620002f5565b90600052602060002090601f016020900481019282620000fd576000855562000149565b82601f106200011857805160ff191683800117855562000149565b8280016001018555821562000149579182015b82811115620001485782518255916020019190600101906200012b565b5b5090506200015891906200015c565b5090565b5b80821115620001775760008160009055506001016200015d565b5090565b6000620001926200018c8462000289565b62000260565b905082815260208101848484011115620001ab57600080fd5b620001b8848285620002bf565b509392505050565b600082601f830112620001d257600080fd5b8151620001e48482602086016200017b565b91505092915050565b600080604083850312156200020157600080fd5b600083015167ffffffffffffffff8111156200021c57600080fd5b6200022a85828601620001c0565b925050602083015167ffffffffffffffff8111156200024857600080fd5b6200025685828601620001c0565b9150509250929050565b60006200026c6200027f565b90506200027a82826200032b565b919050565b6000604051905090565b600067ffffffffffffffff821115620002a757620002a662000390565b5b620002b282620003bf565b9050602081019050919050565b60005b83811015620002df578082015181840152602081019050620002c2565b83811115620002ef576000848401525b50505050565b600060028204905060018216806200030e57607f821691505b6020821081141562000325576200032462000361565b5b50919050565b6200033682620003bf565b810181811067ffffffffffffffff8211171562000358576200035762000390565b5b80604052505050565b7f4e487b7100000000000000000000000000000000000000000000000000000000600052602260045260246000fd5b7f4e487b7100000000000000000000000000000000000000000000000000000000600052604160045260246000fd5b6000601f19601f8301169050919050565b6129e580620003e06000396000f3fe608060405234801561001057600080fd5b50600436106101215760003560e01c806395d89b41116100ad578063c87b56dd11610071578063c87b56dd14610318578063ce9b432114610348578063d196ea9e14610378578063e985e9c514610394578063f79d91ae146103c457610121565b806395d89b4114610274578063a22cb46514610292578063a2e69613146102ae578063b88d4fde146102de578063b8fe6abe146102fa57610121565b80631b49aba0116100f45780631b49aba0146101c057806323b872dd146101dc57806342842e0e146101f85780636352211e1461021457806370a082311461024457610121565b806301ffc9a71461012657806306fdde0314610156578063081812fc14610174578063095ea7b3146101a4575b600080fd5b610140600480360381019061013b9190611b41565b6103e0565b60405161014d9190611f01565b60405180910390f35b61015e6104c2565b60405161016b9190611f1c565b60405180910390f35b61018e60048036038101906101899190611b93565b610554565b60405161019b9190611e9a565b60405180910390f35b6101be60048036038101906101b99190611b05565b6105d9565b005b6101da60048036038101906101d59190611b93565b6106f1565b005b6101f660048036038101906101f191906119ff565b61078b565b005b610212600480360381019061020d91906119ff565b6107eb565b005b61022e60048036038101906102299190611b93565b61080b565b60405161023b9190611e9a565b60405180910390f35b61025e6004803603810190610259919061199a565b6108bd565b60405161026b91906120fe565b60405180910390f35b61027c610975565b6040516102899190611f1c565b60405180910390f35b6102ac60048036038101906102a79190611ac9565b610a07565b005b6102c860048036038101906102c39190611b93565b610a1d565b6040516102d591906120fe565b60405180910390f35b6102f860048036038101906102f39190611a4e565b610a46565b005b610302610aa8565b60405161030f91906120fe565b60405180910390f35b610332600480360381019061032d9190611b93565b610ab2565b60405161033f9190611f1c565b60405180910390f35b610362600480360381019061035d9190611b93565b610c04565b60405161036f91906120fe565b60405180910390f35b610392600480360381019061038d9190611b93565b610c2d565b005b6103ae60048036038101906103a991906119c3565b610cc7565b6040516103bb9190611f01565b60405180910390f35b6103de60048036038101906103d99190611b93565b610d5b565b005b60007f80ac58cd000000000000000000000000000000000000000000000000000000007bffffffffffffffffffffffffffffffffffffffffffffffffffffffff1916827bffffffffffffffffffffffffffffffffffffffffffffffffffffffff191614806104ab57507f5b5e139f000000000000000000000000000000000000000000000000000000007bffffffffffffffffffffffffffffffffffffffffffffffffffffffff1916827bffffffffffffffffffffffffffffffffffffffffffffffffffffffff1916145b806104bb57506104ba82610df5565b5b9050919050565b6060600080546104d19061237d565b80601f01602080910402602001604051908101604052809291908181526020018280546104fd9061237d565b801561054a5780601f1061051f5761010080835404028352916020019161054a565b820191906000526020600020905b81548152906001019060200180831161052d57829003601f168201915b5050505050905090565b600061055f82610e5f565b61059e576040517f08c379a00000000000000000000000000000000000000000000000000000000081526004016105959061205e565b60405180910390fd5b6004600083815260200190815260200160002060009054906101000a900473ffffffffffffffffffffffffffffffffffffffff169050919050565b60006105e48261080b565b90508073ffffffffffffffffffffffffffffffffffffffff168373ffffffffffffffffffffffffffffffffffffffff161415610655576040517f08c379a000000000000000000000000000000000000000000000000000000000815260040161064c906120be565b60405180910390fd5b8073ffffffffffffffffffffffffffffffffffffffff16610674610ecb565b73ffffffffffffffffffffffffffffffffffffffff1614806106a357506106a28161069d610ecb565b610cc7565b5b6106e2576040517f08c379a00000000000000000000000000000000000000000000000000000000081526004016106d990611fde565b60405180910390fd5b6106ec8383610ed3565b505050565b3373ffffffffffffffffffffffffffffffffffffffff16600960009054906101000a900473ffffffffffffffffffffffffffffffffffffffff1673ffffffffffffffffffffffffffffffffffffffff1614610781576040517f08c379a00000000000000000000000000000000000000000000000000000000081526004016107789061209e565b60405180910390fd5b80600b8190555050565b61079c610796610ecb565b82610f8c565b6107db576040517f08c379a00000000000000000000000000000000000000000000000000000000081526004016107d2906120de565b60405180910390fd5b6107e683838361106a565b505050565b61080683838360405180602001604052806000815250610a46565b505050565b6000806002600084815260200190815260200160002060009054906101000a900473ffffffffffffffffffffffffffffffffffffffff169050600073ffffffffffffffffffffffffffffffffffffffff168173ffffffffffffffffffffffffffffffffffffffff1614156108b4576040517f08c379a00000000000000000000000000000000000000000000000000000000081526004016108ab9061201e565b60405180910390fd5b80915050919050565b60008073ffffffffffffffffffffffffffffffffffffffff168273ffffffffffffffffffffffffffffffffffffffff16141561092e576040517f08c379a000000000000000000000000000000000000000000000000000000000815260040161092590611ffe565b60405180910390fd5b600360008373ffffffffffffffffffffffffffffffffffffffff1673ffffffffffffffffffffffffffffffffffffffff168152602001908152602001600020549050919050565b6060600180546109849061237d565b80601f01602080910402602001604051908101604052809291908181526020018280546109b09061237d565b80156109fd5780601f106109d2576101008083540402835291602001916109fd565b820191906000526020600020905b8154815290600101906020018083116109e057829003601f168201915b5050505050905090565b610a19610a12610ecb565b83836112d1565b5050565b600080612710600c5484610a319190612239565b610a3b9190612208565b905080915050919050565b610a57610a51610ecb565b83610f8c565b610a96576040517f08c379a0000000000000000000000000000000000000000000000000000000008152600401610a8d906120de565b60405180910390fd5b610aa28484848461143e565b50505050565b6000600a54905090565b6060610abd82610e5f565b610afc576040517f08c379a0000000000000000000000000000000000000000000000000000000008152600401610af39061203e565b60405180910390fd5b6000600660008481526020019081526020016000208054610b1c9061237d565b80601f0160208091040260200160405190810160405280929190818152602001828054610b489061237d565b8015610b955780601f10610b6a57610100808354040283529160200191610b95565b820191906000526020600020905b815481529060010190602001808311610b7857829003601f168201915b505050505090506000610ba661149a565b9050600081511415610bbc578192505050610bff565b600082511115610bf1578082604051602001610bd9929190611e76565b60405160208183030381529060405292505050610bff565b610bfa846114b1565b925050505b919050565b600080612710600b5484610c189190612239565b610c229190612208565b905080915050919050565b3373ffffffffffffffffffffffffffffffffffffffff16600960009054906101000a900473ffffffffffffffffffffffffffffffffffffffff1673ffffffffffffffffffffffffffffffffffffffff1614610cbd576040517f08c379a0000000000000000000000000000000000000000000000000000000008152600401610cb49061209e565b60405180910390fd5b80600c8190555050565b6000600560008473ffffffffffffffffffffffffffffffffffffffff1673ffffffffffffffffffffffffffffffffffffffff16815260200190815260200160002060008373ffffffffffffffffffffffffffffffffffffffff1673ffffffffffffffffffffffffffffffffffffffff16815260200190815260200160002060009054906101000a900460ff16905092915050565b3373ffffffffffffffffffffffffffffffffffffffff16600960009054906101000a900473ffffffffffffffffffffffffffffffffffffffff1673ffffffffffffffffffffffffffffffffffffffff1614610deb576040517f08c379a0000000000000000000000000000000000000000000000000000000008152600401610de29061209e565b60405180910390fd5b80600a8190555050565b60007f01ffc9a7000000000000000000000000000000000000000000000000000000007bffffffffffffffffffffffffffffffffffffffffffffffffffffffff1916827bffffffffffffffffffffffffffffffffffffffffffffffffffffffff1916149050919050565b60008073ffffffffffffffffffffffffffffffffffffffff166002600084815260200190815260200160002060009054906101000a900473ffffffffffffffffffffffffffffffffffffffff1673ffffffffffffffffffffffffffffffffffffffff1614159050919050565b600033905090565b816004600083815260200190815260200160002060006101000a81548173ffffffffffffffffffffffffffffffffffffffff021916908373ffffffffffffffffffffffffffffffffffffffff160217905550808273ffffffffffffffffffffffffffffffffffffffff16610f468361080b565b73ffffffffffffffffffffffffffffffffffffffff167f8c5be1e5ebec7d5bd14f71427d1e84f3dd0314c0f7b2291e5b200ac8c7c3b92560405160405180910390a45050565b6000610f9782610e5f565b610fd6576040517f08c379a0000000000000000000000000000000000000000000000000000000008152600401610fcd90611fbe565b60405180910390fd5b6000610fe18361080b565b90508073ffffffffffffffffffffffffffffffffffffffff168473ffffffffffffffffffffffffffffffffffffffff16148061105057508373ffffffffffffffffffffffffffffffffffffffff1661103884610554565b73ffffffffffffffffffffffffffffffffffffffff16145b8061106157506110608185610cc7565b5b91505092915050565b8273ffffffffffffffffffffffffffffffffffffffff1661108a8261080b565b73ffffffffffffffffffffffffffffffffffffffff16146110e0576040517f08c379a00000000000000000000000000000000000000000000000000000000081526004016110d790611f5e565b60405180910390fd5b600073ffffffffffffffffffffffffffffffffffffffff168273ffffffffffffffffffffffffffffffffffffffff161415611150576040517f08c379a000000000000000000000000000000000000000000000000000000000815260040161114790611f7e565b60405180910390fd5b61115b838383611558565b611166600082610ed3565b6001600360008573ffffffffffffffffffffffffffffffffffffffff1673ffffffffffffffffffffffffffffffffffffffff16815260200190815260200160002060008282546111b69190612293565b925050819055506001600360008473ffffffffffffffffffffffffffffffffffffffff1673ffffffffffffffffffffffffffffffffffffffff168152602001908152602001600020600082825461120d91906121b2565b92505081905550816002600083815260200190815260200160002060006101000a81548173ffffffffffffffffffffffffffffffffffffffff021916908373ffffffffffffffffffffffffffffffffffffffff160217905550808273ffffffffffffffffffffffffffffffffffffffff168473ffffffffffffffffffffffffffffffffffffffff167fddf252ad1be2c89b69c2b068fc378daa952ba7f163c4a11628f55a4df523b3ef60405160405180910390a46112cc83838361155d565b505050565b8173ffffffffffffffffffffffffffffffffffffffff168373ffffffffffffffffffffffffffffffffffffffff161415611340576040517f08c379a000000000000000000000000000000000000000000000000000000000815260040161133790611f9e565b60405180910390fd5b80600560008573ffffffffffffffffffffffffffffffffffffffff1673ffffffffffffffffffffffffffffffffffffffff16815260200190815260200160002060008473ffffffffffffffffffffffffffffffffffffffff1673ffffffffffffffffffffffffffffffffffffffff16815260200190815260200160002060006101000a81548160ff0219169083151502179055508173ffffffffffffffffffffffffffffffffffffffff168373ffffffffffffffffffffffffffffffffffffffff167f17307eab39ab6107e8899845ad3d59bd9653f200f220920489ca2b5937696c31836040516114319190611f01565b60405180910390a3505050565b61144984848461106a565b61145584848484611562565b611494576040517f08c379a000000000000000000000000000000000000000000000000000000000815260040161148b90611f3e565b60405180910390fd5b50505050565b606060405180602001604052806000815250905090565b60606114bc82610e5f565b6114fb576040517f08c379a00000000000000000000000000000000000000000000000000000000081526004016114f29061207e565b60405180910390fd5b600061150561149a565b905060008151116115255760405180602001604052806000815250611550565b8061152f846116f9565b604051602001611540929190611e76565b6040516020818303038152906040525b915050919050565b505050565b505050565b60006115838473ffffffffffffffffffffffffffffffffffffffff166118a6565b156116ec578373ffffffffffffffffffffffffffffffffffffffff1663150b7a026115ac610ecb565b8786866040518563ffffffff1660e01b81526004016115ce9493929190611eb5565b602060405180830381600087803b1580156115e857600080fd5b505af192505050801561161957506040513d601f19601f820116820180604052508101906116169190611b6a565b60015b61169c573d8060008114611649576040519150601f19603f3d011682016040523d82523d6000602084013e61164e565b606091505b50600081511415611694576040517f08c379a000000000000000000000000000000000000000000000000000000000815260040161168b90611f3e565b60405180910390fd5b805181602001fd5b63150b7a0260e01b7bffffffffffffffffffffffffffffffffffffffffffffffffffffffff1916817bffffffffffffffffffffffffffffffffffffffffffffffffffffffff1916149150506116f1565b600190505b949350505050565b60606000821415611741576040518060400160405280600181526020017f300000000000000000000000000000000000000000000000000000000000000081525090506118a1565b600082905060005b6000821461177357808061175c906123e0565b915050600a8261176c9190612208565b9150611749565b60008167ffffffffffffffff8111156117b5577f4e487b7100000000000000000000000000000000000000000000000000000000600052604160045260246000fd5b6040519080825280601f01601f1916602001820160405280156117e75781602001600182028036833780820191505090505b5090505b6000851461189a576001826118009190612293565b9150600a8561180f9190612429565b603061181b91906121b2565b60f81b818381518110611857577f4e487b7100000000000000000000000000000000000000000000000000000000600052603260045260246000fd5b60200101907effffffffffffffffffffffffffffffffffffffffffffffffffffffffffffff1916908160001a905350600a856118939190612208565b94506117eb565b8093505050505b919050565b6000808273ffffffffffffffffffffffffffffffffffffffff163b119050919050565b60006118dc6118d78461213e565b612119565b9050828152602081018484840111156118f457600080fd5b6118ff84828561233b565b509392505050565b60008135905061191681612953565b92915050565b60008135905061192b8161296a565b92915050565b60008135905061194081612981565b92915050565b60008151905061195581612981565b92915050565b600082601f83011261196c57600080fd5b813561197c8482602086016118c9565b91505092915050565b60008135905061199481612998565b92915050565b6000602082840312156119ac57600080fd5b60006119ba84828501611907565b91505092915050565b600080604083850312156119d657600080fd5b60006119e485828601611907565b92505060206119f585828601611907565b9150509250929050565b600080600060608486031215611a1457600080fd5b6000611a2286828701611907565b9350506020611a3386828701611907565b9250506040611a4486828701611985565b9150509250925092565b60008060008060808587031215611a6457600080fd5b6000611a7287828801611907565b9450506020611a8387828801611907565b9350506040611a9487828801611985565b925050606085013567ffffffffffffffff811115611ab157600080fd5b611abd8782880161195b565b91505092959194509250565b60008060408385031215611adc57600080fd5b6000611aea85828601611907565b9250506020611afb8582860161191c565b9150509250929050565b60008060408385031215611b1857600080fd5b6000611b2685828601611907565b9250506020611b3785828601611985565b9150509250929050565b600060208284031215611b5357600080fd5b6000611b6184828501611931565b91505092915050565b600060208284031215611b7c57600080fd5b6000611b8a84828501611946565b91505092915050565b600060208284031215611ba557600080fd5b6000611bb384828501611985565b91505092915050565b611bc5816122c7565b82525050565b611bd4816122d9565b82525050565b6000611be58261216f565b611bef8185612185565b9350611bff81856020860161234a565b611c0881612516565b840191505092915050565b6000611c1e8261217a565b611c288185612196565b9350611c3881856020860161234a565b611c4181612516565b840191505092915050565b6000611c578261217a565b611c6181856121a7565b9350611c7181856020860161234a565b80840191505092915050565b6000611c8a603283612196565b9150611c9582612527565b604082019050919050565b6000611cad602583612196565b9150611cb882612576565b604082019050919050565b6000611cd0602483612196565b9150611cdb826125c5565b604082019050919050565b6000611cf3601983612196565b9150611cfe82612614565b602082019050919050565b6000611d16602c83612196565b9150611d218261263d565b604082019050919050565b6000611d39603883612196565b9150611d448261268c565b604082019050919050565b6000611d5c602a83612196565b9150611d67826126db565b604082019050919050565b6000611d7f602983612196565b9150611d8a8261272a565b604082019050919050565b6000611da2603183612196565b9150611dad82612779565b604082019050919050565b6000611dc5602c83612196565b9150611dd0826127c8565b604082019050919050565b6000611de8602f83612196565b9150611df382612817565b604082019050919050565b6000611e0b602483612196565b9150611e1682612866565b604082019050919050565b6000611e2e602183612196565b9150611e39826128b5565b604082019050919050565b6000611e51603183612196565b9150611e5c82612904565b604082019050919050565b611e7081612331565b82525050565b6000611e828285611c4c565b9150611e8e8284611c4c565b91508190509392505050565b6000602082019050611eaf6000830184611bbc565b92915050565b6000608082019050611eca6000830187611bbc565b611ed76020830186611bbc565b611ee46040830185611e67565b8181036060830152611ef68184611bda565b905095945050505050565b6000602082019050611f166000830184611bcb565b92915050565b60006020820190508181036000830152611f368184611c13565b905092915050565b60006020820190508181036000830152611f5781611c7d565b9050919050565b60006020820190508181036000830152611f7781611ca0565b9050919050565b60006020820190508181036000830152611f9781611cc3565b9050919050565b60006020820190508181036000830152611fb781611ce6565b9050919050565b60006020820190508181036000830152611fd781611d09565b9050919050565b60006020820190508181036000830152611ff781611d2c565b9050919050565b6000602082019050818103600083015261201781611d4f565b9050919050565b6000602082019050818103600083015261203781611d72565b9050919050565b6000602082019050818103600083015261205781611d95565b9050919050565b6000602082019050818103600083015261207781611db8565b9050919050565b6000602082019050818103600083015261209781611ddb565b9050919050565b600060208201905081810360008301526120b781611dfe565b9050919050565b600060208201905081810360008301526120d781611e21565b9050919050565b600060208201905081810360008301526120f781611e44565b9050919050565b60006020820190506121136000830184611e67565b92915050565b6000612123612134565b905061212f82826123af565b919050565b6000604051905090565b600067ffffffffffffffff821115612159576121586124e7565b5b61216282612516565b9050602081019050919050565b600081519050919050565b600081519050919050565b600082825260208201905092915050565b600082825260208201905092915050565b600081905092915050565b60006121bd82612331565b91506121c883612331565b9250827fffffffffffffffffffffffffffffffffffffffffffffffffffffffffffffffff038211156121fd576121fc61245a565b5b828201905092915050565b600061221382612331565b915061221e83612331565b92508261222e5761222d612489565b5b828204905092915050565b600061224482612331565b915061224f83612331565b9250817fffffffffffffffffffffffffffffffffffffffffffffffffffffffffffffffff04831182151516156122885761228761245a565b5b828202905092915050565b600061229e82612331565b91506122a983612331565b9250828210156122bc576122bb61245a565b5b828203905092915050565b60006122d282612311565b9050919050565b60008115159050919050565b60007fffffffff0000000000000000000000000000000000000000000000000000000082169050919050565b600073ffffffffffffffffffffffffffffffffffffffff82169050919050565b6000819050919050565b82818337600083830152505050565b60005b8381101561236857808201518184015260208101905061234d565b83811115612377576000848401525b50505050565b6000600282049050600182168061239557607f821691505b602082108114156123a9576123a86124b8565b5b50919050565b6123b882612516565b810181811067ffffffffffffffff821117156123d7576123d66124e7565b5b80604052505050565b60006123eb82612331565b91507fffffffffffffffffffffffffffffffffffffffffffffffffffffffffffffffff82141561241e5761241d61245a565b5b600182019050919050565b600061243482612331565b915061243f83612331565b92508261244f5761244e612489565b5b828206905092915050565b7f4e487b7100000000000000000000000000000000000000000000000000000000600052601160045260246000fd5b7f4e487b7100000000000000000000000000000000000000000000000000000000600052601260045260246000fd5b7f4e487b7100000000000000000000000000000000000000000000000000000000600052602260045260246000fd5b7f4e487b7100000000000000000000000000000000000000000000000000000000600052604160045260246000fd5b6000601f19601f8301169050919050565b7f4552433732313a207472616e7366657220746f206e6f6e20455243373231526560008201527f63656976657220696d706c656d656e7465720000000000000000000000000000602082015250565b7f4552433732313a207472616e736665722066726f6d20696e636f72726563742060008201527f6f776e6572000000000000000000000000000000000000000000000000000000602082015250565b7f4552433732313a207472616e7366657220746f20746865207a65726f2061646460008201527f7265737300000000000000000000000000000000000000000000000000000000602082015250565b7f4552433732313a20617070726f766520746f2063616c6c657200000000000000600082015250565b7f4552433732313a206f70657261746f7220717565727920666f72206e6f6e657860008201527f697374656e7420746f6b656e0000000000000000000000000000000000000000602082015250565b7f4552433732313a20617070726f76652063616c6c6572206973206e6f74206f7760008201527f6e6572206e6f7220617070726f76656420666f7220616c6c0000000000000000602082015250565b7f4552433732313a2062616c616e636520717565727920666f7220746865207a6560008201527f726f206164647265737300000000000000000000000000000000000000000000602082015250565b7f4552433732313a206f776e657220717565727920666f72206e6f6e657869737460008201527f656e7420746f6b656e0000000000000000000000000000000000000000000000602082015250565b7f45524337323155524953746f726167653a2055524920717565727920666f722060008201527f6e6f6e6578697374656e7420746f6b656e000000000000000000000000000000602082015250565b7f4552433732313a20617070726f76656420717565727920666f72206e6f6e657860008201527f697374656e7420746f6b656e0000000000000000000000000000000000000000602082015250565b7f4552433732314d657461646174613a2055524920717565727920666f72206e6f60008201527f6e6578697374656e7420746f6b656e0000000000000000000000000000000000602082015250565b7f6e6f7420617574686f72697a656420746f20757064617465206c697374696e6760008201527f2066656500000000000000000000000000000000000000000000000000000000602082015250565b7f4552433732313a20617070726f76616c20746f2063757272656e74206f776e6560008201527f7200000000000000000000000000000000000000000000000000000000000000602082015250565b7f4552433732313a207472616e736665722063616c6c6572206973206e6f74206f60008201527f776e6572206e6f7220617070726f766564000000000000000000000000000000602082015250565b61295c816122c7565b811461296757600080fd5b50565b612973816122d9565b811461297e57600080fd5b50565b61298a816122e5565b811461299557600080fd5b50565b6129a181612331565b81146129ac57600080fd5b5056fea2646970667358221220e83a81232b09b6a5cc055c7b53b1fa6a35fb510f9524a540e8638fb3d2a3b1cb64736f6c63430008040033",
  "linkReferences": {},
  "deployedLinkReferences": {}
}